{
  "_format": "hh-sol-artifact-1",
  "contractName": "Staking",
  "sourceName": "contracts/Staking.sol",
  "abi": [
    {
      "inputs": [
        {
          "internalType": "address",
          "name": "_token",
          "type": "address"
        }
      ],
      "stateMutability": "nonpayable",
      "type": "constructor"
    },
    {
      "inputs": [
        {
          "internalType": "address",
          "name": "token",
          "type": "address"
        }
      ],
      "name": "SafeERC20FailedOperation",
      "type": "error"
    },
    {
      "inputs": [
        {
          "internalType": "address",
          "name": "",
          "type": "address"
        }
      ],
      "name": "balances",
      "outputs": [
        {
          "internalType": "uint256",
          "name": "",
          "type": "uint256"
        }
      ],
      "stateMutability": "view",
      "type": "function"
    },
    {
      "inputs": [],
      "name": "claimReward",
      "outputs": [],
      "stateMutability": "nonpayable",
      "type": "function"
    },
    {
      "inputs": [
        {
          "internalType": "uint256",
          "name": "amount",
          "type": "uint256"
        }
      ],
      "name": "deposit",
      "outputs": [],
      "stateMutability": "nonpayable",
      "type": "function"
    },
    {
      "inputs": [
        {
          "internalType": "address",
          "name": "account",
          "type": "address"
        }
      ],
      "name": "earned",
      "outputs": [
        {
          "internalType": "uint256",
          "name": "",
          "type": "uint256"
        }
      ],
      "stateMutability": "view",
      "type": "function"
    },
    {
      "inputs": [],
      "name": "lastUpdateTime",
      "outputs": [
        {
          "internalType": "uint256",
          "name": "",
          "type": "uint256"
        }
      ],
      "stateMutability": "view",
      "type": "function"
    },
    {
      "inputs": [],
      "name": "rewardPerToken",
      "outputs": [
        {
          "internalType": "uint256",
          "name": "",
          "type": "uint256"
        }
      ],
      "stateMutability": "view",
      "type": "function"
    },
    {
      "inputs": [],
      "name": "rewardPerTokenStored",
      "outputs": [
        {
          "internalType": "uint256",
          "name": "",
          "type": "uint256"
        }
      ],
      "stateMutability": "view",
      "type": "function"
    },
    {
      "inputs": [],
      "name": "rewardRate",
      "outputs": [
        {
          "internalType": "uint256",
          "name": "",
          "type": "uint256"
        }
      ],
      "stateMutability": "view",
      "type": "function"
    },
    {
      "inputs": [
        {
          "internalType": "address",
          "name": "",
          "type": "address"
        }
      ],
      "name": "rewards",
      "outputs": [
        {
          "internalType": "uint256",
          "name": "",
          "type": "uint256"
        }
      ],
      "stateMutability": "view",
      "type": "function"
    },
    {
      "inputs": [],
      "name": "token",
      "outputs": [
        {
          "internalType": "contract IERC20",
          "name": "",
          "type": "address"
        }
      ],
      "stateMutability": "view",
      "type": "function"
    },
    {
      "inputs": [],
      "name": "totalSupply",
      "outputs": [
        {
          "internalType": "uint256",
          "name": "",
          "type": "uint256"
        }
      ],
      "stateMutability": "view",
      "type": "function"
    },
    {
      "inputs": [
        {
          "internalType": "address",
          "name": "",
          "type": "address"
        }
      ],
      "name": "userRewardPerTokenPaid",
      "outputs": [
        {
          "internalType": "uint256",
          "name": "",
          "type": "uint256"
        }
      ],
      "stateMutability": "view",
      "type": "function"
    },
    {
      "inputs": [
        {
          "internalType": "uint256",
          "name": "amount",
          "type": "uint256"
        }
      ],
      "name": "withdraw",
      "outputs": [],
      "stateMutability": "nonpayable",
      "type": "function"
    }
  ],
  "bytecode": "0x608060405234801561001057600080fd5b50604051611032380380611032833981810160405281019061003291906100ef565b806000806101000a81548173ffffffffffffffffffffffffffffffffffffffff021916908373ffffffffffffffffffffffffffffffffffffffff1602179055506504531c15fe00600181905550426002819055505061011c565b600080fd5b600073ffffffffffffffffffffffffffffffffffffffff82169050919050565b60006100bc82610091565b9050919050565b6100cc816100b1565b81146100d757600080fd5b50565b6000815190506100e9816100c3565b92915050565b6000602082840312156101055761010461008c565b5b6000610113848285016100da565b91505092915050565b610f078061012b6000396000f3fe608060405234801561001057600080fd5b50600436106100ce5760003560e01c80638b8763471161008c578063c8f33c9111610066578063c8f33c9114610211578063cd3daf9d1461022f578063df136d651461024d578063fc0c546a1461026b576100ce565b80638b876347146101bb578063b6b55f25146101eb578063b88a802f14610207576100ce565b80628cc262146100d35780630700037d1461010357806318160ddd1461013357806327e235e3146101515780632e1a7d4d146101815780637b0a47ee1461019d575b600080fd5b6100ed60048036038101906100e89190610ae5565b610289565b6040516100fa9190610b2b565b60405180910390f35b61011d60048036038101906101189190610ae5565b610395565b60405161012a9190610b2b565b60405180910390f35b61013b6103ad565b6040516101489190610b2b565b60405180910390f35b61016b60048036038101906101669190610ae5565b6103b7565b6040516101789190610b2b565b60405180910390f35b61019b60048036038101906101969190610b72565b6103cf565b005b6101a561055c565b6040516101b29190610b2b565b60405180910390f35b6101d560048036038101906101d09190610ae5565b610562565b6040516101e29190610b2b565b60405180910390f35b61020560048036038101906102009190610b72565b61057a565b005b61020f610687565b005b610219610778565b6040516102269190610b2b565b60405180910390f35b61023761077e565b6040516102449190610b2b565b60405180910390f35b6102556107ec565b6040516102629190610b2b565b60405180910390f35b6102736107f2565b6040516102809190610bfe565b60405180910390f35b600080600560008473ffffffffffffffffffffffffffffffffffffffff1673ffffffffffffffffffffffffffffffffffffffff168152602001908152602001600020546102d461077e565b6102de9190610c48565b90506c0c9f2c9cd04674edea4000000081600460008673ffffffffffffffffffffffffffffffffffffffff1673ffffffffffffffffffffffffffffffffffffffff168152602001908152602001600020546103399190610c7c565b6103439190610ced565b600660008573ffffffffffffffffffffffffffffffffffffffff1673ffffffffffffffffffffffffffffffffffffffff1681526020019081526020016000205461038d9190610d1e565b915050919050565b60066020528060005260406000206000915090505481565b6000600754905090565b60046020528060005260406000206000915090505481565b336103d981610816565b6000821161041c576040517f08c379a000000000000000000000000000000000000000000000000000000000815260040161041390610daf565b60405180910390fd5b81600460003373ffffffffffffffffffffffffffffffffffffffff1673ffffffffffffffffffffffffffffffffffffffff16815260200190815260200160002054101561049e576040517f08c379a000000000000000000000000000000000000000000000000000000000815260040161049590610e1b565b60405180910390fd5b81600460003373ffffffffffffffffffffffffffffffffffffffff1673ffffffffffffffffffffffffffffffffffffffff16815260200190815260200160002060008282546104ed9190610c48565b9250508190555081600760008282546105069190610c48565b92505081905550610558338360008054906101000a900473ffffffffffffffffffffffffffffffffffffffff1673ffffffffffffffffffffffffffffffffffffffff166108f59092919063ffffffff16565b5050565b60015481565b60056020528060005260406000206000915090505481565b3361058481610816565b600082116105c7576040517f08c379a00000000000000000000000000000000000000000000000000000000081526004016105be90610e87565b60405180910390fd5b81600460003373ffffffffffffffffffffffffffffffffffffffff1673ffffffffffffffffffffffffffffffffffffffff16815260200190815260200160002060008282546106169190610d1e565b92505081905550816007600082825461062f9190610d1e565b9250508190555061068333308460008054906101000a900473ffffffffffffffffffffffffffffffffffffffff1673ffffffffffffffffffffffffffffffffffffffff16610948909392919063ffffffff16565b5050565b3361069181610816565b6000600660003373ffffffffffffffffffffffffffffffffffffffff1673ffffffffffffffffffffffffffffffffffffffff168152602001908152602001600020549050600081036106e35750610775565b6000600660003373ffffffffffffffffffffffffffffffffffffffff1673ffffffffffffffffffffffffffffffffffffffff16815260200190815260200160002081905550610773338260008054906101000a900473ffffffffffffffffffffffffffffffffffffffff1673ffffffffffffffffffffffffffffffffffffffff166108f59092919063ffffffff16565b505b50565b60025481565b600080600754036107935760035490506107e9565b6000600254426107a39190610c48565b90506007546c0c9f2c9cd04674edea40000000600154836107c49190610c7c565b6107ce9190610c7c565b6107d89190610ced565b6003546107e59190610d1e565b9150505b90565b60035481565b60008054906101000a900473ffffffffffffffffffffffffffffffffffffffff1681565b61081e61077e565b60038190555042600281905550600073ffffffffffffffffffffffffffffffffffffffff168173ffffffffffffffffffffffffffffffffffffffff16146108f25761086881610289565b600660008373ffffffffffffffffffffffffffffffffffffffff1673ffffffffffffffffffffffffffffffffffffffff16815260200190815260200160002081905550600354600560008373ffffffffffffffffffffffffffffffffffffffff1673ffffffffffffffffffffffffffffffffffffffff168152602001908152602001600020819055505b50565b610902838383600161099d565b61094357826040517f5274afe700000000000000000000000000000000000000000000000000000000815260040161093a9190610eb6565b60405180910390fd5b505050565b610956848484846001610a07565b61099757836040517f5274afe700000000000000000000000000000000000000000000000000000000815260040161098e9190610eb6565b60405180910390fd5b50505050565b60008063a9059cbb60e01b90506040518160005260001960601c8616600452846024526020600060446000808b5af1925060016000511483166109f95783831516156109ec573d6000823e3d81fd5b6000873b113d1516831692505b806040525050949350505050565b6000806323b872dd60e01b90506040518160005260001960601c871660045260001960601c8616602452846044526020600060646000808c5af192506001600051148316610a6e578383151615610a61573d6000823e3d81fd5b6000883b113d1516831692505b806040526000606052505095945050505050565b600080fd5b600073ffffffffffffffffffffffffffffffffffffffff82169050919050565b6000610ab282610a87565b9050919050565b610ac281610aa7565b8114610acd57600080fd5b50565b600081359050610adf81610ab9565b92915050565b600060208284031215610afb57610afa610a82565b5b6000610b0984828501610ad0565b91505092915050565b6000819050919050565b610b2581610b12565b82525050565b6000602082019050610b406000830184610b1c565b92915050565b610b4f81610b12565b8114610b5a57600080fd5b50565b600081359050610b6c81610b46565b92915050565b600060208284031215610b8857610b87610a82565b5b6000610b9684828501610b5d565b91505092915050565b6000819050919050565b6000610bc4610bbf610bba84610a87565b610b9f565b610a87565b9050919050565b6000610bd682610ba9565b9050919050565b6000610be882610bcb565b9050919050565b610bf881610bdd565b82525050565b6000602082019050610c136000830184610bef565b92915050565b7f4e487b7100000000000000000000000000000000000000000000000000000000600052601160045260246000fd5b6000610c5382610b12565b9150610c5e83610b12565b9250828203905081811115610c7657610c75610c19565b5b92915050565b6000610c8782610b12565b9150610c9283610b12565b9250828202610ca081610b12565b91508282048414831517610cb757610cb6610c19565b5b5092915050565b7f4e487b7100000000000000000000000000000000000000000000000000000000600052601260045260246000fd5b6000610cf882610b12565b9150610d0383610b12565b925082610d1357610d12610cbe565b5b828204905092915050565b6000610d2982610b12565b9150610d3483610b12565b9250828201905080821115610d4c57610d4b610c19565b5b92915050565b600082825260208201905092915050565b7f43616e6e6f74207769746864726177207a65726f000000000000000000000000600082015250565b6000610d99601483610d52565b9150610da482610d63565b602082019050919050565b60006020820190508181036000830152610dc881610d8c565b9050919050565b7f496e73756666696369656e742062616c616e6365000000000000000000000000600082015250565b6000610e05601483610d52565b9150610e1082610dcf565b602082019050919050565b60006020820190508181036000830152610e3481610df8565b9050919050565b7f43616e6e6f74207374616b65207a65726f000000000000000000000000000000600082015250565b6000610e71601183610d52565b9150610e7c82610e3b565b602082019050919050565b60006020820190508181036000830152610ea081610e64565b9050919050565b610eb081610aa7565b82525050565b6000602082019050610ecb6000830184610ea7565b9291505056fea2646970667358221220ef35d38f5b3b80b97de58038423966083e00ca5c1e9558c47d1072d4116ca30064736f6c634300081c0033",
  "linkReferences": {},
  "deployedLinkReferences": {}
}