{
  "_format": "hh-sol-artifact-1",
  "contractName": "AMM",
  "sourceName": "contracts/AMM.sol",
  "abi": [
    {
      "inputs": [
        {
          "internalType": "address",
          "name": "_token",
          "type": "address"
        }
      ],
      "stateMutability": "nonpayable",
      "type": "constructor"
    },
    {
      "inputs": [
        {
          "internalType": "uint256",
          "name": "tokenAmount",
          "type": "uint256"
        }
      ],
      "name": "addLiquidity",
      "outputs": [],
      "stateMutability": "payable",
      "type": "function"
    },
    {
      "inputs": [],
      "name": "lpToken",
      "outputs": [
        {
          "internalType": "contract LPToken",
          "name": "",
          "type": "address"
        }
      ],
      "stateMutability": "view",
      "type": "function"
    },
    {
      "inputs": [
        {
          "internalType": "uint256",
          "name": "lpAmount",
          "type": "uint256"
        }
      ],
      "name": "removeLiquidity",
      "outputs": [],
      "stateMutability": "nonpayable",
      "type": "function"
    },
    {
      "inputs": [],
      "name": "reserveETH",
      "outputs": [
        {
          "internalType": "uint256",
          "name": "",
          "type": "uint256"
        }
      ],
      "stateMutability": "view",
      "type": "function"
    },
    {
      "inputs": [],
      "name": "reserveToken",
      "outputs": [
        {
          "internalType": "uint256",
          "name": "",
          "type": "uint256"
        }
      ],
      "stateMutability": "view",
      "type": "function"
    },
    {
      "inputs": [
        {
          "internalType": "uint256",
          "name": "minTokenOut",
          "type": "uint256"
        }
      ],
      "name": "swapETHForToken",
      "outputs": [],
      "stateMutability": "payable",
      "type": "function"
    },
    {
      "inputs": [
        {
          "internalType": "uint256",
          "name": "tokenIn",
          "type": "uint256"
        },
        {
          "internalType": "uint256",
          "name": "minETHOut",
          "type": "uint256"
        }
      ],
      "name": "swapTokenForETH",
      "outputs": [],
      "stateMutability": "nonpayable",
      "type": "function"
    },
    {
      "inputs": [],
      "name": "token",
      "outputs": [
        {
          "internalType": "contract IERC20",
          "name": "",
          "type": "address"
        }
      ],
      "stateMutability": "view",
      "type": "function"
    },
    {
      "stateMutability": "payable",
      "type": "receive"
    }
  ],
  "bytecode": "0x608060405234801561001057600080fd5b50604051612aaa380380612aaa83398181016040528101906100329190610151565b806000806101000a81548173ffffffffffffffffffffffffffffffffffffffff021916908373ffffffffffffffffffffffffffffffffffffffff16021790555060405161007e906100e1565b604051809103906000f08015801561009a573d6000803e3d6000fd5b50600160006101000a81548173ffffffffffffffffffffffffffffffffffffffff021916908373ffffffffffffffffffffffffffffffffffffffff1602179055505061017e565b6115b5806114f583390190565b600080fd5b600073ffffffffffffffffffffffffffffffffffffffff82169050919050565b600061011e826100f3565b9050919050565b61012e81610113565b811461013957600080fd5b50565b60008151905061014b81610125565b92915050565b600060208284031215610167576101666100ee565b5b60006101758482850161013c565b91505092915050565b6113688061018d6000396000f3fe60806040526004361061007f5760003560e01c80635fcbd2851161004e5780635fcbd285146101175780639c8f9f2314610142578063f4325d671461016b578063fc0c546a1461019657610086565b8063100af2031461008b5780631618e130146100b65780631b3d2cb3146100df57806351c6590a146100fb57610086565b3661008657005b600080fd5b34801561009757600080fd5b506100a06101c1565b6040516100ad9190610d3b565b60405180910390f35b3480156100c257600080fd5b506100dd60048036038101906100d89190610d87565b6101c7565b005b6100f960048036038101906100f49190610dc7565b6103d9565b005b61011560048036038101906101109190610dc7565b61053b565b005b34801561012357600080fd5b5061012c610976565b6040516101399190610e73565b60405180910390f35b34801561014e57600080fd5b5061016960048036038101906101649190610dc7565b61099c565b005b34801561017757600080fd5b50610180610c7e565b60405161018d9190610d3b565b60405180910390f35b3480156101a257600080fd5b506101ab610c84565b6040516101b89190610eaf565b60405180910390f35b60035481565b60008054906101000a900473ffffffffffffffffffffffffffffffffffffffff1673ffffffffffffffffffffffffffffffffffffffff166323b872dd3330856040518463ffffffff1660e01b815260040161022493929190610eeb565b6020604051808303816000875af1158015610243573d6000803e3d6000fd5b505050506040513d601f19601f820116820180604052508101906102679190610f5a565b5060006103e86103e58461027b9190610fb6565b6102859190611027565b90506000816002546102979190611058565b826003546102a59190610fb6565b6102af9190611027565b9050828110156102f4576040517f08c379a00000000000000000000000000000000000000000000000000000000081526004016102eb906110e9565b60405180910390fd5b83600260008282546103069190611058565b92505081905550806003600082825461031f9190611109565b9250508190555060003373ffffffffffffffffffffffffffffffffffffffff168260405161034c9061116e565b60006040518083038185875af1925050503d8060008114610389576040519150601f19603f3d011682016040523d82523d6000602084013e61038e565b606091505b50509050806103d2576040517f08c379a00000000000000000000000000000000000000000000000000000000081526004016103c9906111cf565b60405180910390fd5b5050505050565b60006103e86103e5346103ec9190610fb6565b6103f69190611027565b90506000816003546104089190611058565b826002546104169190610fb6565b6104209190611027565b905082811015610465576040517f08c379a000000000000000000000000000000000000000000000000000000000815260040161045c906110e9565b60405180910390fd5b34600360008282546104779190611058565b9250508190555080600260008282546104909190611109565b9250508190555060008054906101000a900473ffffffffffffffffffffffffffffffffffffffff1673ffffffffffffffffffffffffffffffffffffffff1663a9059cbb33836040518363ffffffff1660e01b81526004016104f29291906111ef565b6020604051808303816000875af1158015610511573d6000803e3d6000fd5b505050506040513d601f19601f820116820180604052508101906105359190610f5a565b50505050565b60008111801561054b5750600034115b61058a576040517f08c379a000000000000000000000000000000000000000000000000000000000815260040161058190611264565b60405180910390fd5b600060025414801561059e57506000600354145b156106ff5760008054906101000a900473ffffffffffffffffffffffffffffffffffffffff1673ffffffffffffffffffffffffffffffffffffffff166323b872dd3330846040518463ffffffff1660e01b815260040161060093929190610eeb565b6020604051808303816000875af115801561061f573d6000803e3d6000fd5b505050506040513d601f19601f820116820180604052508101906106439190610f5a565b508060028190555034600381905550600061066834836106639190610fb6565b610ca8565b9050600160009054906101000a900473ffffffffffffffffffffffffffffffffffffffff1673ffffffffffffffffffffffffffffffffffffffff166340c10f1933836040518363ffffffff1660e01b81526004016106c79291906111ef565b600060405180830381600087803b1580156106e157600080fd5b505af11580156106f5573d6000803e3d6000fd5b5050505050610973565b6000600254826003546107129190610fb6565b61071c9190611027565b905080341015610761576040517f08c379a0000000000000000000000000000000000000000000000000000000008152600401610758906112d0565b60405180910390fd5b60008054906101000a900473ffffffffffffffffffffffffffffffffffffffff1673ffffffffffffffffffffffffffffffffffffffff166323b872dd3330856040518463ffffffff1660e01b81526004016107be93929190610eeb565b6020604051808303816000875af11580156107dd573d6000803e3d6000fd5b505050506040513d601f19601f820116820180604052508101906108019190610f5a565b50600060025483600160009054906101000a900473ffffffffffffffffffffffffffffffffffffffff1673ffffffffffffffffffffffffffffffffffffffff166318160ddd6040518163ffffffff1660e01b8152600401602060405180830381865afa158015610875573d6000803e3d6000fd5b505050506040513d601f19601f820116820180604052508101906108999190611305565b6108a39190610fb6565b6108ad9190611027565b905082600260008282546108c19190611058565b9250508190555034600360008282546108da9190611058565b92505081905550600160009054906101000a900473ffffffffffffffffffffffffffffffffffffffff1673ffffffffffffffffffffffffffffffffffffffff166340c10f1933836040518363ffffffff1660e01b815260040161093e9291906111ef565b600060405180830381600087803b15801561095857600080fd5b505af115801561096c573d6000803e3d6000fd5b5050505050505b50565b600160009054906101000a900473ffffffffffffffffffffffffffffffffffffffff1681565b6000600160009054906101000a900473ffffffffffffffffffffffffffffffffffffffff1673ffffffffffffffffffffffffffffffffffffffff166318160ddd6040518163ffffffff1660e01b8152600401602060405180830381865afa158015610a0b573d6000803e3d6000fd5b505050506040513d601f19601f82011682018060405250810190610a2f9190611305565b905060008183600254610a429190610fb6565b610a4c9190611027565b905060008284600354610a5f9190610fb6565b610a699190611027565b9050600160009054906101000a900473ffffffffffffffffffffffffffffffffffffffff1673ffffffffffffffffffffffffffffffffffffffff16639dc29fac33866040518363ffffffff1660e01b8152600401610ac89291906111ef565b600060405180830381600087803b158015610ae257600080fd5b505af1158015610af6573d6000803e3d6000fd5b505050508160026000828254610b0c9190611109565b925050819055508060036000828254610b259190611109565b9250508190555060008054906101000a900473ffffffffffffffffffffffffffffffffffffffff1673ffffffffffffffffffffffffffffffffffffffff1663a9059cbb33846040518363ffffffff1660e01b8152600401610b879291906111ef565b6020604051808303816000875af1158015610ba6573d6000803e3d6000fd5b505050506040513d601f19601f82011682018060405250810190610bca9190610f5a565b5060003373ffffffffffffffffffffffffffffffffffffffff1682604051610bf19061116e565b60006040518083038185875af1925050503d8060008114610c2e576040519150601f19603f3d011682016040523d82523d6000602084013e610c33565b606091505b5050905080610c77576040517f08c379a0000000000000000000000000000000000000000000000000000000008152600401610c6e906111cf565b60405180910390fd5b5050505050565b60025481565b60008054906101000a900473ffffffffffffffffffffffffffffffffffffffff1681565b60006003821115610d0f5781905060006001600284610cc79190611027565b610cd19190611058565b90505b81811015610d09578091506002818285610cee9190611027565b610cf89190611058565b610d029190611027565b9050610cd4565b50610d1d565b60008214610d1c57600190505b5b919050565b6000819050919050565b610d3581610d22565b82525050565b6000602082019050610d506000830184610d2c565b92915050565b600080fd5b610d6481610d22565b8114610d6f57600080fd5b50565b600081359050610d8181610d5b565b92915050565b60008060408385031215610d9e57610d9d610d56565b5b6000610dac85828601610d72565b9250506020610dbd85828601610d72565b9150509250929050565b600060208284031215610ddd57610ddc610d56565b5b6000610deb84828501610d72565b91505092915050565b600073ffffffffffffffffffffffffffffffffffffffff82169050919050565b6000819050919050565b6000610e39610e34610e2f84610df4565b610e14565b610df4565b9050919050565b6000610e4b82610e1e565b9050919050565b6000610e5d82610e40565b9050919050565b610e6d81610e52565b82525050565b6000602082019050610e886000830184610e64565b92915050565b6000610e9982610e40565b9050919050565b610ea981610e8e565b82525050565b6000602082019050610ec46000830184610ea0565b92915050565b6000610ed582610df4565b9050919050565b610ee581610eca565b82525050565b6000606082019050610f006000830186610edc565b610f0d6020830185610edc565b610f1a6040830184610d2c565b949350505050565b60008115159050919050565b610f3781610f22565b8114610f4257600080fd5b50565b600081519050610f5481610f2e565b92915050565b600060208284031215610f7057610f6f610d56565b5b6000610f7e84828501610f45565b91505092915050565b7f4e487b7100000000000000000000000000000000000000000000000000000000600052601160045260246000fd5b6000610fc182610d22565b9150610fcc83610d22565b9250828202610fda81610d22565b91508282048414831517610ff157610ff0610f87565b5b5092915050565b7f4e487b7100000000000000000000000000000000000000000000000000000000600052601260045260246000fd5b600061103282610d22565b915061103d83610d22565b92508261104d5761104c610ff8565b5b828204905092915050565b600061106382610d22565b915061106e83610d22565b925082820190508082111561108657611085610f87565b5b92915050565b600082825260208201905092915050565b7f736c697070616765000000000000000000000000000000000000000000000000600082015250565b60006110d360088361108c565b91506110de8261109d565b602082019050919050565b60006020820190508181036000830152611102816110c6565b9050919050565b600061111482610d22565b915061111f83610d22565b925082820390508181111561113757611136610f87565b5b92915050565b600081905092915050565b50565b600061115860008361113d565b915061116382611148565b600082019050919050565b60006111798261114b565b9150819050919050565b7f455448207472616e73666572206661696c656400000000000000000000000000600082015250565b60006111b960138361108c565b91506111c482611183565b602082019050919050565b600060208201905081810360008301526111e8816111ac565b9050919050565b60006040820190506112046000830185610edc565b6112116020830184610d2c565b9392505050565b7f696e76616c696400000000000000000000000000000000000000000000000000600082015250565b600061124e60078361108c565b915061125982611218565b602082019050919050565b6000602082019050818103600083015261127d81611241565b9050919050565b7f62616420726174696f0000000000000000000000000000000000000000000000600082015250565b60006112ba60098361108c565b91506112c582611284565b602082019050919050565b600060208201905081810360008301526112e9816112ad565b9050919050565b6000815190506112ff81610d5b565b92915050565b60006020828403121561131b5761131a610d56565b5b6000611329848285016112f0565b9150509291505056fea264697066735822122041697734b41c9db7d41da5cc572cf6afd0ac62e3774562d84fdbc2a02ceb2d8564736f6c634300081c0033608060405234801561001057600080fd5b506040518060400160405280600a81526020017f4d79546f6b656e204c50000000000000000000000000000000000000000000008152506040518060400160405280600681526020017f4d544b2d4c500000000000000000000000000000000000000000000000000000815250816003908161008c9190610335565b50806004908161009c9190610335565b50505033600560006101000a81548173ffffffffffffffffffffffffffffffffffffffff021916908373ffffffffffffffffffffffffffffffffffffffff160217905550610407565b600081519050919050565b7f4e487b7100000000000000000000000000000000000000000000000000000000600052604160045260246000fd5b7f4e487b7100000000000000000000000000000000000000000000000000000000600052602260045260246000fd5b6000600282049050600182168061016657607f821691505b6020821081036101795761017861011f565b5b50919050565b60008190508160005260206000209050919050565b60006020601f8301049050919050565b600082821b905092915050565b6000600883026101e17fffffffffffffffffffffffffffffffffffffffffffffffffffffffffffffffff826101a4565b6101eb86836101a4565b95508019841693508086168417925050509392505050565b6000819050919050565b6000819050919050565b600061023261022d61022884610203565b61020d565b610203565b9050919050565b6000819050919050565b61024c83610217565b61026061025882610239565b8484546101b1565b825550505050565b600090565b610275610268565b610280818484610243565b505050565b5b818110156102a45761029960008261026d565b600181019050610286565b5050565b601f8211156102e9576102ba8161017f565b6102c384610194565b810160208510156102d2578190505b6102e66102de85610194565b830182610285565b50505b505050565b600082821c905092915050565b600061030c600019846008026102ee565b1980831691505092915050565b600061032583836102fb565b9150826002028217905092915050565b61033e826100e5565b67ffffffffffffffff811115610357576103566100f0565b5b610361825461014e565b61036c8282856102a8565b600060209050601f83116001811461039f576000841561038d578287015190505b6103978582610319565b8655506103ff565b601f1984166103ad8661017f565b60005b828110156103d5578489015182556001820191506020850194506020810190506103b0565b868310156103f257848901516103ee601f8916826102fb565b8355505b6001600288020188555050505b505050505050565b61119f806104166000396000f3fe608060405234801561001057600080fd5b50600436106100b45760003560e01c806340c10f191161007157806340c10f191461019157806370a08231146101ad57806395d89b41146101dd5780639dc29fac146101fb578063a9059cbb14610217578063dd62ed3e14610247576100b4565b806306fdde03146100b9578063095ea7b3146100d757806318160ddd1461010757806323b872dd146101255780632a94394514610155578063313ce56714610173575b600080fd5b6100c1610277565b6040516100ce9190610d87565b60405180910390f35b6100f160048036038101906100ec9190610e42565b610309565b6040516100fe9190610e9d565b60405180910390f35b61010f61032c565b60405161011c9190610ec7565b60405180910390f35b61013f600480360381019061013a9190610ee2565b610336565b60405161014c9190610e9d565b60405180910390f35b61015d610365565b60405161016a9190610f44565b60405180910390f35b61017b61038b565b6040516101889190610f7b565b60405180910390f35b6101ab60048036038101906101a69190610e42565b610394565b005b6101c760048036038101906101c29190610f96565b610432565b6040516101d49190610ec7565b60405180910390f35b6101e561047a565b6040516101f29190610d87565b60405180910390f35b61021560048036038101906102109190610e42565b61050c565b005b610231600480360381019061022c9190610e42565b6105aa565b60405161023e9190610e9d565b60405180910390f35b610261600480360381019061025c9190610fc3565b6105cd565b60405161026e9190610ec7565b60405180910390f35b60606003805461028690611032565b80601f01602080910402602001604051908101604052809291908181526020018280546102b290611032565b80156102ff5780601f106102d4576101008083540402835291602001916102ff565b820191906000526020600020905b8154815290600101906020018083116102e257829003601f168201915b5050505050905090565b600080610314610654565b905061032181858561065c565b600191505092915050565b6000600254905090565b600080610341610654565b905061034e85828561066e565b610359858585610703565b60019150509392505050565b600560009054906101000a900473ffffffffffffffffffffffffffffffffffffffff1681565b60006012905090565b600560009054906101000a900473ffffffffffffffffffffffffffffffffffffffff1673ffffffffffffffffffffffffffffffffffffffff163373ffffffffffffffffffffffffffffffffffffffff1614610424576040517f08c379a000000000000000000000000000000000000000000000000000000000815260040161041b906110af565b60405180910390fd5b61042e82826107f7565b5050565b60008060008373ffffffffffffffffffffffffffffffffffffffff1673ffffffffffffffffffffffffffffffffffffffff168152602001908152602001600020549050919050565b60606004805461048990611032565b80601f01602080910402602001604051908101604052809291908181526020018280546104b590611032565b80156105025780601f106104d757610100808354040283529160200191610502565b820191906000526020600020905b8154815290600101906020018083116104e557829003601f168201915b5050505050905090565b600560009054906101000a900473ffffffffffffffffffffffffffffffffffffffff1673ffffffffffffffffffffffffffffffffffffffff163373ffffffffffffffffffffffffffffffffffffffff161461059c576040517f08c379a0000000000000000000000000000000000000000000000000000000008152600401610593906110af565b60405180910390fd5b6105a68282610879565b5050565b6000806105b5610654565b90506105c2818585610703565b600191505092915050565b6000600160008473ffffffffffffffffffffffffffffffffffffffff1673ffffffffffffffffffffffffffffffffffffffff16815260200190815260200160002060008373ffffffffffffffffffffffffffffffffffffffff1673ffffffffffffffffffffffffffffffffffffffff16815260200190815260200160002054905092915050565b600033905090565b61066983838360016108fb565b505050565b600061067a84846105cd565b90507fffffffffffffffffffffffffffffffffffffffffffffffffffffffffffffffff8110156106fd57818110156106ed578281836040517ffb8f41b20000000000000000000000000000000000000000000000000000000081526004016106e4939291906110cf565b60405180910390fd5b6106fc848484840360006108fb565b5b50505050565b600073ffffffffffffffffffffffffffffffffffffffff168373ffffffffffffffffffffffffffffffffffffffff16036107755760006040517f96c6fd1e00000000000000000000000000000000000000000000000000000000815260040161076c9190610f44565b60405180910390fd5b600073ffffffffffffffffffffffffffffffffffffffff168273ffffffffffffffffffffffffffffffffffffffff16036107e75760006040517fec442f050000000000000000000000000000000000000000000000000000000081526004016107de9190610f44565b60405180910390fd5b6107f2838383610ad2565b505050565b600073ffffffffffffffffffffffffffffffffffffffff168273ffffffffffffffffffffffffffffffffffffffff16036108695760006040517fec442f050000000000000000000000000000000000000000000000000000000081526004016108609190610f44565b60405180910390fd5b61087560008383610ad2565b5050565b600073ffffffffffffffffffffffffffffffffffffffff168273ffffffffffffffffffffffffffffffffffffffff16036108eb5760006040517f96c6fd1e0000000000000000000000000000000000000000000000000000000081526004016108e29190610f44565b60405180910390fd5b6108f782600083610ad2565b5050565b600073ffffffffffffffffffffffffffffffffffffffff168473ffffffffffffffffffffffffffffffffffffffff160361096d5760006040517fe602df050000000000000000000000000000000000000000000000000000000081526004016109649190610f44565b60405180910390fd5b600073ffffffffffffffffffffffffffffffffffffffff168373ffffffffffffffffffffffffffffffffffffffff16036109df5760006040517f94280d620000000000000000000000000000000000000000000000000000000081526004016109d69190610f44565b60405180910390fd5b81600160008673ffffffffffffffffffffffffffffffffffffffff1673ffffffffffffffffffffffffffffffffffffffff16815260200190815260200160002060008573ffffffffffffffffffffffffffffffffffffffff1673ffffffffffffffffffffffffffffffffffffffff168152602001908152602001600020819055508015610acc578273ffffffffffffffffffffffffffffffffffffffff168473ffffffffffffffffffffffffffffffffffffffff167f8c5be1e5ebec7d5bd14f71427d1e84f3dd0314c0f7b2291e5b200ac8c7c3b92584604051610ac39190610ec7565b60405180910390a35b50505050565b600073ffffffffffffffffffffffffffffffffffffffff168373ffffffffffffffffffffffffffffffffffffffff1603610b24578060026000828254610b189190611135565b92505081905550610bf7565b60008060008573ffffffffffffffffffffffffffffffffffffffff1673ffffffffffffffffffffffffffffffffffffffff16815260200190815260200160002054905081811015610bb0578381836040517fe450d38c000000000000000000000000000000000000000000000000000000008152600401610ba7939291906110cf565b60405180910390fd5b8181036000808673ffffffffffffffffffffffffffffffffffffffff1673ffffffffffffffffffffffffffffffffffffffff16815260200190815260200160002081905550505b600073ffffffffffffffffffffffffffffffffffffffff168273ffffffffffffffffffffffffffffffffffffffff1603610c405780600260008282540392505081905550610c8d565b806000808473ffffffffffffffffffffffffffffffffffffffff1673ffffffffffffffffffffffffffffffffffffffff168152602001908152602001600020600082825401925050819055505b8173ffffffffffffffffffffffffffffffffffffffff168373ffffffffffffffffffffffffffffffffffffffff167fddf252ad1be2c89b69c2b068fc378daa952ba7f163c4a11628f55a4df523b3ef83604051610cea9190610ec7565b60405180910390a3505050565b600081519050919050565b600082825260208201905092915050565b60005b83811015610d31578082015181840152602081019050610d16565b60008484015250505050565b6000601f19601f8301169050919050565b6000610d5982610cf7565b610d638185610d02565b9350610d73818560208601610d13565b610d7c81610d3d565b840191505092915050565b60006020820190508181036000830152610da18184610d4e565b905092915050565b600080fd5b600073ffffffffffffffffffffffffffffffffffffffff82169050919050565b6000610dd982610dae565b9050919050565b610de981610dce565b8114610df457600080fd5b50565b600081359050610e0681610de0565b92915050565b6000819050919050565b610e1f81610e0c565b8114610e2a57600080fd5b50565b600081359050610e3c81610e16565b92915050565b60008060408385031215610e5957610e58610da9565b5b6000610e6785828601610df7565b9250506020610e7885828601610e2d565b9150509250929050565b60008115159050919050565b610e9781610e82565b82525050565b6000602082019050610eb26000830184610e8e565b92915050565b610ec181610e0c565b82525050565b6000602082019050610edc6000830184610eb8565b92915050565b600080600060608486031215610efb57610efa610da9565b5b6000610f0986828701610df7565b9350506020610f1a86828701610df7565b9250506040610f2b86828701610e2d565b9150509250925092565b610f3e81610dce565b82525050565b6000602082019050610f596000830184610f35565b92915050565b600060ff82169050919050565b610f7581610f5f565b82525050565b6000602082019050610f906000830184610f6c565b92915050565b600060208284031215610fac57610fab610da9565b5b6000610fba84828501610df7565b91505092915050565b60008060408385031215610fda57610fd9610da9565b5b6000610fe885828601610df7565b9250506020610ff985828601610df7565b9150509250929050565b7f4e487b7100000000000000000000000000000000000000000000000000000000600052602260045260246000fd5b6000600282049050600182168061104a57607f821691505b60208210810361105d5761105c611003565b5b50919050565b7f6f6e6c7920414d4d000000000000000000000000000000000000000000000000600082015250565b6000611099600883610d02565b91506110a482611063565b602082019050919050565b600060208201905081810360008301526110c88161108c565b9050919050565b60006060820190506110e46000830186610f35565b6110f16020830185610eb8565b6110fe6040830184610eb8565b949350505050565b7f4e487b7100000000000000000000000000000000000000000000000000000000600052601160045260246000fd5b600061114082610e0c565b915061114b83610e0c565b925082820190508082111561116357611162611106565b5b9291505056fea2646970667358221220c3631279b980eee5e1818a1ac3a45a9c03d677ebf7705f0cb00e901c27c5f28564736f6c634300081c0033",
  "linkReferences": {},
  "deployedLinkReferences": {}
}